{
  "contractName": "Election",
  "abi": [
    {
      "inputs": [],
      "stateMutability": "nonpayable",
      "type": "constructor"
    },
    {
      "anonymous": false,
      "inputs": [
        {
          "indexed": true,
          "internalType": "uint256",
          "name": "_candidateId",
          "type": "uint256"
        }
      ],
      "name": "votedEvent",
      "type": "event"
    },
    {
      "inputs": [
        {
          "internalType": "uint256",
          "name": "",
          "type": "uint256"
        }
      ],
      "name": "candidates",
      "outputs": [
        {
          "internalType": "uint256",
          "name": "id",
          "type": "uint256"
        },
        {
          "internalType": "string",
          "name": "name",
          "type": "string"
        },
        {
          "internalType": "uint256",
          "name": "voteCount",
          "type": "uint256"
        }
      ],
      "stateMutability": "view",
      "type": "function",
      "constant": true
    },
    {
      "inputs": [],
      "name": "candidatesCount",
      "outputs": [
        {
          "internalType": "uint256",
          "name": "",
          "type": "uint256"
        }
      ],
      "stateMutability": "view",
      "type": "function",
      "constant": true
    },
    {
      "inputs": [],
      "name": "electionEnds",
      "outputs": [
        {
          "internalType": "uint256",
          "name": "",
          "type": "uint256"
        }
      ],
      "stateMutability": "view",
      "type": "function",
      "constant": true
    },
    {
      "inputs": [],
      "name": "electionStarts",
      "outputs": [
        {
          "internalType": "uint256",
          "name": "",
          "type": "uint256"
        }
      ],
      "stateMutability": "view",
      "type": "function",
      "constant": true
    },
    {
      "inputs": [
        {
          "internalType": "address",
          "name": "",
          "type": "address"
        }
      ],
      "name": "voters",
      "outputs": [
        {
          "internalType": "bool",
          "name": "",
          "type": "bool"
        }
      ],
      "stateMutability": "view",
      "type": "function",
      "constant": true
    },
    {
      "inputs": [],
      "name": "votingTime",
      "outputs": [
        {
          "internalType": "uint256",
          "name": "",
          "type": "uint256"
        }
      ],
      "stateMutability": "view",
      "type": "function",
      "constant": true
    },
    {
      "inputs": [
        {
          "internalType": "string",
          "name": "_name",
          "type": "string"
        }
      ],
      "name": "addCandidate",
      "outputs": [],
      "stateMutability": "nonpayable",
      "type": "function"
    },
    {
      "inputs": [
        {
          "internalType": "uint256",
          "name": "_candidateId",
          "type": "uint256"
        }
      ],
      "name": "vote",
      "outputs": [],
      "stateMutability": "nonpayable",
      "type": "function"
    }
  ],
  "bytecode": "0x60806040526501822c328b30600355650182560f0080600455603c6005553480156200002a57600080fd5b50620000716040518060400160405280600b81526020017f43616e6469646174652031000000000000000000000000000000000000000000815250620000bd60201b60201c565b620000b76040518060400160405280600b81526020017f43616e6469646174652035000000000000000000000000000000000000000000815250620000bd60201b60201c565b620002df565b60026000815480929190620000d29062000233565b91905055506040518060600160405280600254815260200182815260200160008152506001600060025481526020019081526020016000206000820151816000015560208201518160010190805190602001906200013292919062000143565b506040820151816002015590505050565b8280546200015190620001fd565b90600052602060002090601f016020900481019282620001755760008555620001c1565b82601f106200019057805160ff1916838001178555620001c1565b82800160010185558215620001c1579182015b82811115620001c0578251825591602001919060010190620001a3565b5b509050620001d09190620001d4565b5090565b5b80821115620001ef576000816000905550600101620001d5565b5090565b6000819050919050565b600060028204905060018216806200021657607f821691505b602082108114156200022d576200022c620002b0565b5b50919050565b60006200024082620001f3565b91507fffffffffffffffffffffffffffffffffffffffffffffffffffffffffffffffff82141562000276576200027562000281565b5b600182019050919050565b7f4e487b7100000000000000000000000000000000000000000000000000000000600052601160045260246000fd5b7f4e487b7100000000000000000000000000000000000000000000000000000000600052602260045260246000fd5b61096c80620002ef6000396000f3fe608060405234801561001057600080fd5b50600436106100885760003560e01c8063366c20e11161005b578063366c20e114610117578063462e91ec14610135578063a3ec138d14610151578063fdebb4901461018157610088565b80630121b93f1461008d5780631cbe482d146100a95780632d35a8a2146100c75780633477ee2e146100e5575b600080fd5b6100a760048036038101906100a291906105ce565b61019f565b005b6100b16102c3565b6040516100be9190610669565b60405180910390f35b6100cf6102c9565b6040516100dc9190610669565b60405180910390f35b6100ff60048036038101906100fa91906105ce565b6102cf565b60405161010e93929190610684565b60405180910390f35b61011f610381565b60405161012c9190610669565b60405180910390f35b61014f600480360381019061014a919061058d565b610387565b005b61016b60048036038101906101669190610564565b610409565b604051610178919061064e565b60405180910390f35b610189610429565b6040516101969190610669565b60405180910390f35b6000803373ffffffffffffffffffffffffffffffffffffffff1673ffffffffffffffffffffffffffffffffffffffff16815260200190815260200160002060009054906101000a900460ff16156101f557600080fd5b60008111801561020757506002548111155b61021057600080fd5b60016000803373ffffffffffffffffffffffffffffffffffffffff1673ffffffffffffffffffffffffffffffffffffffff16815260200190815260200160002060006101000a81548160ff02191690831515021790555060016000828152602001908152602001600020600201600081548092919061028e90610821565b9190505550807ffff3c900d938d21d0990d786e819f29b8d05c1ef587b462b939609625b684b1660405160405180910390a250565b60055481565b60025481565b60016020528060005260406000206000915090508060000154908060010180546102f8906107be565b80601f0160208091040260200160405190810160405280929190818152602001828054610324906107be565b80156103715780601f1061034657610100808354040283529160200191610371565b820191906000526020600020905b81548152906001019060200180831161035457829003601f168201915b5050505050908060020154905083565b60035481565b6002600081548092919061039a90610821565b91905055506040518060600160405280600254815260200182815260200160008152506001600060025481526020019081526020016000206000820151816000015560208201518160010190805190602001906103f892919061042f565b506040820151816002015590505050565b60006020528060005260406000206000915054906101000a900460ff1681565b60045481565b82805461043b906107be565b90600052602060002090601f01602090048101928261045d57600085556104a4565b82601f1061047657805160ff19168380011785556104a4565b828001600101855582156104a4579182015b828111156104a3578251825591602001919060010190610488565b5b5090506104b191906104b5565b5090565b5b808211156104ce5760008160009055506001016104b6565b5090565b60006104e56104e0846106e7565b6106c2565b9050828152602081018484840111156104fd57600080fd5b61050884828561077c565b509392505050565b60008135905061051f81610908565b92915050565b600082601f83011261053657600080fd5b81356105468482602086016104d2565b91505092915050565b60008135905061055e8161091f565b92915050565b60006020828403121561057657600080fd5b600061058484828501610510565b91505092915050565b60006020828403121561059f57600080fd5b600082013567ffffffffffffffff8111156105b957600080fd5b6105c584828501610525565b91505092915050565b6000602082840312156105e057600080fd5b60006105ee8482850161054f565b91505092915050565b61060081610746565b82525050565b600061061182610718565b61061b8185610723565b935061062b81856020860161078b565b610634816108f7565b840191505092915050565b61064881610772565b82525050565b600060208201905061066360008301846105f7565b92915050565b600060208201905061067e600083018461063f565b92915050565b6000606082019050610699600083018661063f565b81810360208301526106ab8185610606565b90506106ba604083018461063f565b949350505050565b60006106cc6106dd565b90506106d882826107f0565b919050565b6000604051905090565b600067ffffffffffffffff821115610702576107016108c8565b5b61070b826108f7565b9050602081019050919050565b600081519050919050565b600082825260208201905092915050565b600061073f82610752565b9050919050565b60008115159050919050565b600073ffffffffffffffffffffffffffffffffffffffff82169050919050565b6000819050919050565b82818337600083830152505050565b60005b838110156107a957808201518184015260208101905061078e565b838111156107b8576000848401525b50505050565b600060028204905060018216806107d657607f821691505b602082108114156107ea576107e9610899565b5b50919050565b6107f9826108f7565b810181811067ffffffffffffffff82111715610818576108176108c8565b5b80604052505050565b600061082c82610772565b91507fffffffffffffffffffffffffffffffffffffffffffffffffffffffffffffffff82141561085f5761085e61086a565b5b600182019050919050565b7f4e487b7100000000000000000000000000000000000000000000000000000000600052601160045260246000fd5b7f4e487b7100000000000000000000000000000000000000000000000000000000600052602260045260246000fd5b7f4e487b7100000000000000000000000000000000000000000000000000000000600052604160045260246000fd5b6000601f19601f8301169050919050565b61091181610734565b811461091c57600080fd5b50565b61092881610772565b811461093357600080fd5b5056fea2646970667358221220cfa120deb1efa475a3349f21e3510b6932f6972cebaefb79ca42fea293e333c564736f6c63430008010033",
  "immutableReferences": {},
  "source": "pragma solidity >=0.4.22 <0.9.0;\r\n\r\ncontract Election {\r\n    struct Candidate {\r\n        uint id;\r\n        string name;\r\n        uint voteCount;\r\n    }\r\n\r\n    mapping(address => bool) public voters;\r\n    mapping(uint => Candidate) public candidates;\r\n    uint public candidatesCount;\r\n    uint public electionStarts = 1658598886192; // 2022-07-23\r\n    uint public electionEnds = 1659301200000; // 2022-08-01\r\n    uint public votingTime = 1 * 60; // 1 minute\r\n\r\n    event votedEvent (\r\n        uint indexed _candidateId\r\n    );\r\n\r\n    constructor () public {\r\n        addCandidate(\"Candidate 1\");\r\n        addCandidate(\"Candidate 5\");\r\n    }\r\n\r\n    function addCandidate (string memory _name) public {\r\n        candidatesCount ++;\r\n        candidates[candidatesCount] = Candidate(candidatesCount, _name, 0);\r\n    }\r\n\r\n    function vote (uint _candidateId) public {\r\n        require(!voters[msg.sender]);\r\n        require(_candidateId > 0 && _candidateId <= candidatesCount);\r\n\r\n        voters[msg.sender] = true;\r\n        candidates[_candidateId].voteCount ++;\r\n\r\n        emit votedEvent(_candidateId);\r\n    }\r\n}",
  "sourcePath": "c:\\Yovel\\HIT\\Blockchain\\DLVotingDApp\\blockchain\\contracts\\Election.sol",
  "compiler": {
    "name": "solc",
    "version": "0.8.1+commit.df193b15.Emscripten.clang"
  },
  "schemaVersion": "3.4.8",
  "updatedAt": "2022-07-23T18:08:06.709Z",
  "networkType": "ethereum",
  "devdoc": {
    "kind": "dev",
    "methods": {},
    "version": 1
  },
  "userdoc": {
    "kind": "user",
    "methods": {},
    "version": 1
  }
}